:020000040800F2
:1000000000500020E10D0008710D0008770D000878
:100010007D0D0008830D0008890D00080000000018
:100020000000000000000000000000008F0D00082C
:100030009B0D000800000000A70D0008B30D00088C
:10004000290E0008290E0008290E0008290E0008B4
:10005000290E0008290E0008290E0008290E0008A4
:10006000290E0008290E0008290E0008290E000894
:10007000290E0008290E0008290E0008290E000884
:10008000290E0008290E0008290E0008290E000874
:10009000290E0008290E0008290E0008290E000864
:1000A000290E0008290E0008290E0008290E000854
:1000B000C10D0008290E0008290E0008290E0008AD
:1000C000290E0008290E0008290E0008290E000834
:1000D000290E0008290E0008290E0008290E000824
:1000E000290E0008290E0008290E00080000000053
:1000F0000000000000000000000000000000000000
:0C01000000000000000000005FF808F1A3
:10010C0010B5054C237833B9044B13B10448AFF345
:10011C0000800123237010BD580000200000000057
:10012C009824000808B5034B1BB103490348AFF3EF
:10013C00008008BD000000005C000020982400082E
:10014C0080B400AF064B1B68012B04D1044B00227A
:10015C001A60012300E000231846BD4680BC70479E
:10016C007400002080B400AF064B1B68012B04D137
:10017C00044B00221A60012300E000231846BD4600
:10018C0080BC70477800002080B400AF064B1B6821
:10019C00012B04D1044B00221A60012300E0002340
:1001AC001846BD4680BC70477C00002080B400AF70
:1001BC00034B01221A6000BFBD4680BC704700BFD4
:1001CC007400002080B400AF034B01221A6000BF02
:1001DC00BD4680BC704700BF7800002080B400AFE3
:1001EC00034B01221A6000BFBD4680BC704700BFA4
:1001FC007C00002080B500AF5A4B1B685A4A136034
:10020C005A4B1B68574A13600821594801F0FCF8F7
:10021C0003461A46554B1A60534B1A68514B1B68D0
:10022C009A4225D14F4B1A68504B1B689A421FD1EA
:10023C00504B1A684D4B1B689A420DD04B4B1B68A8
:10024C004C4A1360494B1B68002B11D1FFF7AEFFD2
:10025C00494BC8221A600BE0474B1B68013B464ACE
:10026C001360454B1B68002B02D1424B01221A60D4
:10027C00424B1B68424A1360424B1B683F4A136057
:10028C0020213B4801F0C0F803461A463D4B1A604A
:10029C003B4B1A68394B1B689A4225D1374B1A686D
:1002AC00384B1B689A421FD1374B1A68354B1B6869
:1002BC009A420DD0334B1B68334A1360314B1B6889
:1002CC00002B11D1FFF77EFF304BC8221A600BE0D8
:1002DC002E4B1B68013B2D4A13602C4B1B68002BCB
:1002EC0002D1294B01221A60294B1B68294A136041
:1002FC00294B1B68264A136010211D4801F084F815
:10030C0003461A46244B1A60224B1A68204B1B6872
:10031C009A4225D11E4B1A681F4B1B689A421FD15B
:10032C001E4B1A681C4B1B689A420DD01A4B1B684B
:10033C001A4A1360184B1B68002B11D1FFF74EFFA4
:10034C00174BC8221A600BE0154B1B68013B144A73
:10035C001360134B1B68002B02D1104B01221A6047
:10036C0000BF80BD04000020000000200800002019
:10037C00000C01400C000020100000201800002090
:10038C00140000201C00002020000020240000206D
:10039C002C00002028000020300000203400002019
:1003AC003800002080B500AFA44B1B68013B042B28
:1003BC0000F2B18101A252F823F000BFDD03000866
:1003CC00770400080F050008AF0500088506000833
:1003DC0000224FF480719A4801F02DF800224FF45E
:1003EC000071974801F027F800228021954801F010
:1003FC0022F800224021944801F01DF88F4B022274
:10040C001A60924B1B68184600F000FC322000F07A
:10041C003FFC8F4B1B688F4A13608F4B1B688F4AB6
:10042C0013608A4B1B688E4A1360894B1B688D4A7C
:10043C001360894B1B688C4A1360844B1B688B4A76
:10044C001360824B1A68844B1B681A44804B1B68E0
:10045C009A4200F06281864B02221A60774B0C2282
:10046C001A60322000F0D2FB57E101224FF4807168
:10047C00734800F0E0FF01224FF40071704800F067
:10048C00DAFF012280216F4800F0D5FF00224021C5
:10049C006D4800F0D0FF774B1B68012B0BD16B4BD9
:1004AC001B68724A1360654B03221A606A4B1B6807
:1004BC00184600F0ABFBFFF743FE0346012B40F060
:1004CC002E816B4B02221A6000224FF480715C4823
:1004DC0000F0B1FF00224FF40071594800F0ABFF5F
:1004EC0000228021574800F0A6FF002240215648E8
:1004FC0000F0A1FF514B0C221A60322000F086FB59
:10050C000DE101224FF480714D4800F094FF01225F
:10051C004FF400714A4800F08EFF002280214948B8
:10052C0000F089FF01224021474800F084FF514B25
:10053C001B68012B0FD1464B1B684A4A1360464B74
:10054C001B68494A13603D4B04221A603F4B1B68E1
:10055C00184600F05BFBFFF7F3FD0346012B40F060
:10056C00E080434B02221A6000224FF48071344821
:10057C0000F061FF00224FF40071314800F05BFF86
:10058C00002280212F4800F056FF002240212E48E7
:10059C0000F051FF294B0C221A60322000F036FB80
:1005AC00BFE001224FF48071254800F044FF002287
:1005BC004FF40071224800F03EFF012280212148B7
:1005CC0000F039FF012240211F4800F034FF294B75
:1005DC001B68012B0BD11D4B1B68244A1360174B56
:1005EC0005221A601C4B1B68184600F00FFBFFF726
:1005FC00A7FD0346012B40F096801D4B02221A608A
:10060C0000224FF480710E4800F015FF00224FF4C9
:10061C0000710B4800F00FFF00228021094800F008
:10062C000AFF00224021084800F005FF034B0C2272
:10063C001A60322000F0EAFA75E000BF800000205A
:10064C000008014000100140000C01404400002053
:10065C00400000209400002048000020980000205A
:10066C00A8000020A0000020A40000209C00002076
:10067C003C0000208800002000224FF480712C48A0
:10068C0000F0D9FE01224FF40071294800F0D3FE8E
:10069C0001228021274800F0CEFE0122402126486D
:1006AC0000F0C9FE254B1B68012B0FD1244B1B6896
:1006BC00244A1360244B1B68244A1360244B0222E7
:1006CC001A60244B1B68184600F0A0FAFFF738FD9F
:1006DC000346012B29D1204B02221A6000224FF431
:1006EC008071134800F0A7FE00224FF400711048EF
:1006FC0000F0A1FE002280210E4800F09CFE00229A
:10070C0040210D4800F097FE114B0C221A6032204C
:10071C0000F07CFA09E000BF08E000BF06E000BF73
:10072C0004E000BF02E000BF00E000BF00BF80BDDE
:10073C000008014000100140000C0140880000201E
:10074C0040000020A000002048000020A400002051
:10075C0080000020440000203C00002080B500AF49
:10076C00774B1B680E2B58D00E2B00F3DF800C2B15
:10077C0003D00D2B00F0A280D8E0724B1B68012B2C
:10078C0014D14FF48071704800F06DFE4FF400717D
:10079C006D4800F068FE80216C4800F064FE40213A
:1007AC006B4800F060FE322000F030FAFFF7C8FC16
:1007BC000346012B1ED1674B03221A6000224FF413
:1007CC008071614800F037FE00224FF400715E48E2
:1007DC0000F031FE002280215C4800F02CFE00224B
:1007EC0040215B4800F027FE554B0E221A60322048
:1007FC0000F00CFA584B1B68184600F0B9F8034689
:10080C00554A1360FFF7C0FC0346012B40F0908063
:10081C00514B1B68514A13608AE000224FF48071DF
:10082C00494800F008FE00228021484800F003FEF1
:10083C00444B1B68012B0BD14FF40071424800F064
:10084C0012FE4021424800F00EFE322000F0DEF98C
:10085C00FFF776FC0346012B1ED13E4B04221A6097
:10086C0000224FF48071384800F0E5FD00224FF46F
:10087C000071354800F0DFFD00228021334800F084
:10088C00DAFD00224021324800F0D5FD2C4B0D2220
:10089C001A60322000F0BAF9314B1B68184600F090
:1008AC0067F803462E4A1360FFF76EFC0346012BD4
:1008BC0040D12B4B1B682B4A13603BE000224FF4BA
:1008CC000071214800F0B7FD00224021204800F0C3
:1008DC00B2FD1C4B1B68012B0BD14FF480711A48D5
:1008EC0000F0C1FD8021194800F0BDFD322000F060
:1008FC008DF9FFF725FC0346012B05D1104B012286
:10090C001A60322000F082F9174B1B68184600F071
:10091C002FF80346144A1360FFF736FC0346012BED
:10092C000AD1114B1B68114A136005E000BF04E0AB
:10093C0000BF02E000BF00E000BF00BF80BD00BFF1
:10094C0080000020880000200008014000100140B9
:10095C00000C01403C0000209400002040000020CE
:10096C009800002048000020A8000020440000202F
:10097C0080B582B000AF7860FFF7F4FB0346012B23
:10098C0009D17B6864337B607B6842F2AC62934232
:10099C0001DD64237B607B6818460837BD4680BD4B
:1009AC0080B500AF00F03CFA00F014F800F09AF8B3
:1009BC0000F04CF8054801F09BF9054B01221A6038
:1009CC00FFF7F0FCFFF7CAFEFAE700BFAC0000200F
:1009DC008000002080B590B000AF07F118032822EA
:1009EC000021184601F04AFD3B1D00221A605A6096
:1009FC009A60DA601A610223BB610123BB62102387
:100A0C00FB6200237B6307F11803184600F044FDDA
:100A1C000346002B01D000F0F3F80F237B6000237A
:100A2C00BB600023FB6000233B6100237B613B1D0B
:100A3C000021184600F0B0FF0346002B01D000F057
:100A4C00DFF800BF4037BD4680BD000080B586B0E2
:100A5C0000AF07F1080300221A605A609A60DA604E
:100A6C003B4600221A605A601D4B4FF080421A60C0
:100A7C001B4B41F63F725A60194B00229A60184B7F
:100A8C000922DA60164B00221A61154B00229A617A
:100A9C00134801F0DDF80346002B01D000F0B0F84C
:100AAC004FF48053BB6007F1080319460C4801F062
:100ABC0061FA0346002B01D000F0A2F800233B6042
:100ACC0000237B603B461946054801F043FC034676
:100ADC00002B01D000F094F800BF1837BD4680BD44
:100AEC00AC00002080B588B000AF07F110030022E5
:100AFC001A605A609A60DA60374B9B69364A43F049
:100B0C0010039361344B9B6903F01003FB60FB688B
:100B1C00314B9B69304A43F0040393612E4B9B6924
:100B2C0003F00403BB60BB682B4B9B692A4A43F060
:100B3C0008039361284B9B6903F008037B607B6877
:100B4C0000228021254800F076FC00224FF44071F1
:100B5C00234800F070FC00224021224800F06BFC7E
:100B6C0080233B6101237B610023BB610223FB617A
:100B7C0007F110031946194800F0C2FA4FF44073FC
:100B8C003B6101237B610023BB610223FB6107F105
:100B9C0010031946124800F0B3FA38233B610023C6
:100BAC007B610123BB6107F1100319460D4800F06E
:100BBC00A7FA40233B6101237B610023BB61022325
:100BCC00FB6107F110031946064800F099FA00BFC3
:100BDC002037BD4680BD00BF001002400010014010
:100BEC0000080140000C014080B582B000AF786075
:100BFC0000F020F8FFF7FEFA00BF0837BD4680BDB5
:100C0C0080B400AF72B600BFFEE7000080B483B0C2
:100C1C0000AF7860054A7B681360054B00221A60B0
:100C2C0000BF0C37BD4680BC704700BF840000205D
:100C3C008800002080B400AF114B1B68002B0BDD2B
:100C4C000F4B1B68013B0E4A13600D4B1B68002BAE
:100C5C0002DC0C4B01221A600B4B1B68002B0BDDCA
:100C6C00094B1B68013B084A1360074B1B68002BA0
:100C7C0002DC064B01221A6000BFBD4680BC7047E7
:100C8C0084000020880000208C00002090000020B0
:100C9C0080B483B000AF7860054A7B681360054B65
:100CAC0000221A6000BF0C37BD4680BC704700BFE5
:100CBC008C0000209000002080B485B000AF154B54
:100CCC009B69144A43F001039361124B9B6903F037
:100CDC000103BB60BB680F4BDB690E4A43F08053CA
:100CEC00D3610C4BDB6903F080537B607B680A4B50
:100CFC005B68FB60FB6823F0E063FB60FB6843F020
:100D0C000073FB60044AFB68536000BF1437BD4698
:100D1C0080BC7047001002400000014080B584B0D8
:100D2C0000AF78607B681B68B3F1804F13D10C4B1C
:100D3C00DB690B4A43F00103D361094BDB6903F018
:100D4C000103FB60FB68002200211C2000F0A1F9CC
:100D5C001C2000F0BAF900BF1037BD4680BD00BFA3
:100D6C000010024080B400AFFEE780B400AFFEE795
:100D7C0080B400AFFEE780B400AFFEE780B400AFF4
:100D8C00FEE780B400AF00BFBD4680BC704780B4A6
:100D9C0000AF00BFBD4680BC704780B400AF00BF41
:100DAC00BD4680BC704780B500AF00F07FF800BF37
:100DBC0080BD000080B500AF024800F0EBFF00BF23
:100DCC0080BD00BFAC00002080B400AF00BFBD46AA
:100DDC0080BC7047FFF7F8FF0B480C490C4A002306
:100DEC0002E0D458C4500433C4188C42F9D3094AD5
:100DFC00094C002301E013600432A242FBD301F042
:100E0C0019FBFFF7CDFD70470000002058000020B3
:100E1C00DC24000858000020F8000020FEE7000049
:100E2C0080B500AF084B1B68074A43F010031360F2
:100E3C00032000F023F90F2000F008F8FFF73CFF27
:100E4C000023184680BD00BF0020024080B582B050
:100E5C0000AF7860124B1A68124B1B7819464FF48E
:100E6C007A73B3FBF1F3B2FBF3F3184600F03BF9E2
:100E7C000346002B01D001230EE07B680F2B0AD810
:100E8C00002279684FF0FF3000F003F9064A7B68C6
:100E9C001360002300E0012318460837BD4680BDCF
:100EAC004C000020540000205000002080B400AF03
:100EBC00054B1B781A46054B1B681344034A1360F9
:100ECC0000BFBD4680BC704754000020F4000020D9
:100EDC0080B400AF024B1B681846BD4680BC7047FF
:100EEC00F400002080B485B000AF78607B6803F01C
:100EFC000703FB600C4BDB68BB60BA684FF6FF0363
:100F0C001340BB60FB681A02BB68134343F0BF631A
:100F1C0043F40033BB60044ABB68D36000BF143792
:100F2C00BD4680BC704700BF00ED00E080B400AF50
:100F3C00044BDB681B0A03F007031846BD4680BC54
:100F4C00704700BF00ED00E080B483B000AF0346F3
:100F5C00FB7197F90730002B0BDBFB7903F01F02B9
:100F6C00064997F907305B09012000FA02F241F8B3
:100F7C00232000BF0C37BD4680BC704700E100E069
:100F8C0080B483B000AF03463960FB7197F907302A
:100F9C00002B0ADB3B68DAB20C4997F907301201D7
:100FAC00D2B20B4483F800230AE03B68DAB208495A
:100FBC00FB7903F00F03043B1201D2B20B441A76F7
:100FCC0000BF0C37BD4680BC704700BF00E100E09D
:100FDC0000ED00E080B489B000AFF860B9607A60D1
:100FEC00FB6803F00703FB61FB69C3F10703042BE8
:100FFC0028BF0423BB61FB690433062B02D9FB69B0
:10100C00033B00E000237B614FF0FF32BB6902FA27
:10101C0003F3DA43BB681A407B699A404FF0FF3107
:10102C007B6901FA03F3D9437B680B4013431846E1
:10103C002437BD4680BC704780B582B000AF786065
:10104C007B68013BB3F1807F01D301230FE00A4A97
:10105C007B68013B53600F214FF0FF30FFF790FF8F
:10106C00054B00229A60044B07221A600023184695
:10107C000837BD4680BD00BF10E000E080B582B0EF
:10108C0000AF78607868FFF72DFF00BF0837BD46CA
:10109C0080BD80B586B000AF0346B9607A60FB7343
:1010AC0000237B61FFF742FF78617A68B968786941
:1010BC00FFF790FF024697F90F3011461846FFF7DD
:1010CC005FFF00BF1837BD4680BD80B582B000AF52
:1010DC000346FB7197F907301846FFF735FF00BF41
:1010EC000837BD4680BD80B582B000AF78607868A7
:1010FC00FFF7A2FF034618460837BD4680BD000027
:10110C0080B48BB000AF7860396000237B62002321
:10111C003B6269E101227B6A02FA03F3FB613B68E3
:10112C001B68FA691340BB61BA69FB699A4240F0CB
:10113C0058813B685B689A4A93425ED0984A9342C6
:10114C0075D8984A934258D0964A93426FD8964A8B
:10115C00934252D0944A934269D8944A93424CD0C9
:10116C00924A934263D8924A934246D0904A934211
:10117C005DD8122B2AD8122B59D801A252F823F081
:10118C0007120008E1110008F311000835120008DD
:10119C003B1200083B1200083B1200083B120008EF
:1011AC003B1200083B1200083B1200083B120008DF
:1011BC003B1200083B1200083B1200083B120008CF
:1011CC003B120008E9110008FD110008794A93420E
:1011DC0013D02CE03B68DB683B6229E03B68DB68A2
:1011EC0004333B6224E03B68DB6808333B621FE05E
:1011FC003B68DB680C333B621AE03B689B68002B56
:10120C0002D104233B6213E03B689B68012B05D1A0
:10121C0008233B627B68FA691A6109E008233B6288
:10122C007B68FA695A6103E000233B6200E000BF6F
:10123C00BB69FF2B01D87B6801E07B6804337B61C1
:10124C00BB69FF2B02D87B6A9B0002E07B6A083BE0
:10125C009B003B617B691A680F213B6901FA03F320
:10126C00DB431A40396A3B6901FA03F31A437B6981
:10127C001A603B685B6803F08053002B00F0B18070
:10128C004D4B9B694C4A43F0010393614A4B9B695C
:10129C0003F00103BB60BB68484A7B6A9B080233BE
:1012AC0052F82330FB607B6A03F003039B000F2290
:1012BC0002FA03F3DB43FA681340FB607B68404A95
:1012CC00934213D07B683F4A93420DD07B683E4AD1
:1012DC00934207D07B683D4A934201D1032306E039
:1012EC00042304E0022302E0012300E000237A6AD5
:1012FC0002F0030292009340FA681343FB602F49FB
:10130C007B6A9B080233FA6841F823203B685B68D0
:10131C0003F48013002B06D02D4B9A682C49BB6923
:10132C0013438B6006E02A4B9A68BB69DB43284960
:10133C0013408B603B685B6803F40013002B06D0F2
:10134C00234BDA682249BB691343CB6006E0204B80
:10135C00DA68BB69DB431E491340CB603B685B68B2
:10136C0003F40033002B06D0194B5A681849BB699B
:10137C0013434B6006E0164B5A68BB69DB431449B8
:10138C0013404B603B685B6803F48033002B21D027
:10139C000F4B1A680E49BB6913430B6021E000BF69
:1013AC00000032100000311000002210000021104B
:1013BC00000012100000111000100240000001404B
:1013CC0000080140000C01400010014000140140D5
:1013DC00000401400B4B1A68BB69DB4309491340FD
:1013EC000B607B6A01337B623B681A687B6A22FA6A
:1013FC0003F3002B7FF48EAE00BF00BF2C37BD462D
:10140C0080BC70470004014080B485B000AF7860A8
:10141C000B467B807B689A687B881340002B02D03C
:10142C000123FB7301E00023FB73FB7B184614378D
:10143C00BD4680BC704780B483B000AF78600B466B
:10144C007B8013467B707B78002B03D07A887B687B
:10145C001A6103E07B881A047B681A6100BF0C37A1
:10146C00BD4680BC704780B485B000AF78600B4639
:10147C007B807B68DB68FB607A88FB6813401A040E
:10148C00FB68D9437B880B401A437B681A6100BF09
:10149C001437BD4680BC704780B586B000AF78600D
:1014AC007B68002B01D101236CE27B681B6803F085
:1014BC000103002B00F08780924B5B6803F00C0358
:1014CC00042B0CD08F4B5B6803F00C03082B12D150
:1014DC008C4B5B6803F48033B3F5803F0BD1894BA5
:1014EC001B6803F40033002B6CD07B685B68002B0B
:1014FC0068D1012346E27B685B68B3F5803F06D177
:10150C00804B1B687F4A43F4803313602EE07B686A
:10151C005B68002B0CD17B4B1B687A4A23F480331D
:10152C001360784B1B68774A23F4802313601DE00B
:10153C007B685B68B3F5A02F0CD1724B1B68714AAA
:10154C0043F4802313606F4B1B686E4A43F4803363
:10155C0013600BE06B4B1B686A4A23F480331360F7
:10156C00684B1B68674A23F4802313607B685B68B5
:10157C00002B13D0FFF7ACFC386108E0FFF7A8FC98
:10158C0002463B69D31A642B01D90323FAE15D4B64
:10159C001B6803F40033002BF0D014E0FFF798FC29
:1015AC00386108E0FFF794FC02463B69D31A642BC0
:1015BC0001D90323E6E1534B1B6803F40033002BE2
:1015CC00F0D100E000BF7B681B6803F00203002B26
:1015DC0063D04C4B5B6803F00C03002B0BD0494BD6
:1015EC005B6803F00C03082B1CD1464B5B6803F4BF
:1015FC008033002B16D1434B1B6803F00203002BE6
:10160C0005D07B681B69012B01D00123BAE13D4B4E
:10161C001B6823F0F8027B685B69DB0039491343D4
:10162C000B603AE07B681B69002B20D0364B012203
:10163C001A60FFF74DFC386108E0FFF749FC0246E1
:10164C003B69D31A022B01D903239BE12D4B1B6859
:10165C0003F00203002BF0D02A4B1B6823F0F80296
:10166C007B685B69DB00274913430B6015E0264B55
:10167C0000221A60FFF72CFC386108E0FFF728FC09
:10168C0002463B69D31A022B01D903237AE11D4B85
:10169C001B6803F00203002BF0D17B681B6803F07E
:1016AC000803002B3AD07B689B69002B19D0174B91
:1016BC0001221A60FFF70CFC386108E0FFF708FC08
:1016CC0002463B69D31A022B01D903235AE10D4B75
:1016DC005B6A03F00203002BF0D0012000F09AFAB1
:1016EC001CE00A4B00221A60FFF7F2FB38610FE096
:1016FC00FFF7EEFB02463B69D31A022B08D90323F2
:10170C0040E100BF0010024000004242800442420F
:10171C009E4B5B6A03F00203002BE9D17B681B68CC
:10172C0003F00403002B00F0A6800023FB75974BFD
:10173C00DB6903F08053002B0DD1944BDB69934A8A
:10174C0043F08053D361914BDB6903F08053BB6052
:10175C00BB680123FB758E4B1B6803F48073002B55
:10176C0018D18B4B1B688A4A43F480731360FFF7C4
:10177C00AFFB386108E0FFF7ABFB02463B69D31ABD
:10178C00642B01D90323FDE0814B1B6803F48073A8
:10179C00002BF0D07B68DB68012B06D17B4B1B6ADE
:1017AC007A4A43F0010313622DE07B68DB68002B5F
:1017BC000CD1764B1B6A754A23F001031362734BF1
:1017CC001B6A724A23F0040313621CE07B68DB681B
:1017DC00052B0CD16D4B1B6A6C4A43F0040313624E
:1017EC006A4B1B6A694A43F0010313620BE0674BB7
:1017FC001B6A664A23F001031362644B1B6A634A3B
:10180C0023F0040313627B68DB68002B15D0FFF711
:10181C005FFB38610AE0FFF75BFB02463B69D31ABA
:10182C0041F28832934201D90323ABE0574B1B6A38
:10183C0003F00203002BEED014E0FFF749FB3861F4
:10184C000AE0FFF745FB02463B69D31A41F28832A6
:10185C00934201D9032395E04C4B1B6A03F002031E
:10186C00002BEED1FB7D012B05D1484BDB69474AA0
:10187C0023F08053D3617B68DB69002B00F08180FF
:10188C00424B5B6803F00C03082B61D07B68DB696F
:10189C00022B46D13F4B00221A60FFF719FB38612F
:1018AC0008E0FFF715FB02463B69D31A022B01D95E
:1018BC00032367E0354B1B6803F00073002BF0D15A
:1018CC007B681B6AB3F5803F08D1304B5B6823F40F
:1018DC0000327B689B682D4913434B602B4B5B6834
:1018EC0023F474127B68196A7B685B6A0B43274983
:1018FC0013434B60274B01221A60FFF7E9FA38615A
:10190C0008E0FFF7E5FA02463B69D31A022B01D92E
:10191C00032337E01D4B1B6803F00073002BF0D042
:10192C002FE01C4B00221A60FFF7D2FA386108E056
:10193C00FFF7CEFA02463B69D31A022B01D90323D7
:10194C0020E0124B1B6803F00073002BF0D118E061
:10195C007B68DB69012B01D1012313E00B4B5B6826
:10196C00FB60FB6803F480327B681B6A9A4206D1E9
:10197C00FB6803F470127B685B6A9A4201D0012306
:10198C0000E0002318461837BD4680BD0010024009
:10199C00007000406000424280B584B000AF7860B7
:1019AC0039607B68002B01D10123D0E06A4B1B68A6
:1019BC0003F007033A689A4210D9674B1B6823F06F
:1019CC00070265493B6813430B60634B1B6803F0CC
:1019DC0007033A689A4201D00123B8E07B681B6880
:1019EC0003F00203002B20D07B681B6803F0040378
:1019FC00002B05D0594B5B68584A43F4E0635360A5
:101A0C007B681B6803F00803002B05D0534B5B6805
:101A1C00524A43F460535360504B5B6823F0F0021E
:101A2C007B689B684D4913434B607B681B6803F0D4
:101A3C000103002B40D07B685B68012B07D1474B1F
:101A4C001B6803F40033002B15D101237FE07B6866
:101A5C005B68022B07D1414B1B6803F00073002B12
:101A6C0009D1012373E03D4B1B6803F00203002BEB
:101A7C0001D101236BE0394B5B6823F003027B68D7
:101A8C005B68364913434B60FFF722FAF8600AE0B3
:101A9C00FFF71EFA0246FB68D31A41F288329342D2
:101AAC0001D9032353E02D4B5B6803F00C027B68D8
:101ABC005B689B009A42EBD1274B1B6803F0070332
:101ACC003A689A4210D2244B1B6823F00702224931
:101ADC003B6813430B60204B1B6803F007033A6809
:101AEC009A4201D0012332E07B681B6803F00403A7
:101AFC00002B08D0194B5B6823F4E0627B68DB6831
:101B0C00164913434B607B681B6803F00803002BDA
:101B1C0009D0124B5B6823F460527B681B69DB00B5
:101B2C000E4913434B6000F021F802460B4B5B68E7
:101B3C001B0903F00F030A49CB5C22FA03F3094A91
:101B4C001360094B1B681846FFF780F900231846F1
:101B5C001037BD4680BD00BF00200240001002407F
:101B6C00B02400084C0000205000002080B487B046
:101B7C0000AF0023FB600023BB6000237B610023CC
:101B8C007B6000233B611E4B5B68FB60FB6803F0D2
:101B9C000C03042B02D0082B03D027E0194B3B611C
:101BAC0027E0FB689B0C03F00F03174AD35C7B60A8
:101BBC00FB6803F48033002B10D0114B5B685B0C7B
:101BCC0003F00103114AD35CBB607B680D4A02FB36
:101BDC0003F2BB68B2FBF3F37B6104E07B680C4A55
:101BEC0002FB03F37B617B693B6102E0054B3B61CC
:101BFC0000BF3B6918461C37BD4680BC704700BF10
:101C0C000010024000127A00C0240008D024000802
:101C1C0000093D0080B485B000AF78600A4B1B68AA
:101C2C000A4AA2FB03235B0A7A6802FB03F3FB60FC
:101C3C0000BFFB685A1EFA60002BF9D100BF00BF31
:101C4C001437BD4680BC70474C000020D34D621049
:101C5C0080B582B000AF78607B68002B01D1012386
:101C6C0041E07B6893F83D30DBB2002B06D17B68FA
:101C7C00002283F83C207868FFF750F87B6802223A
:101C8C0083F83D207B681A687B680433194610463C
:101C9C0000F05CFA7B68012283F846207B68012205
:101CAC0083F83E207B68012283F83F207B68012269
:101CBC0083F840207B68012283F841207B68012255
:101CCC0083F842207B68012283F843207B68012241
:101CDC0083F844207B68012283F845207B6801222D
:101CEC0083F83D20002318460837BD4680BD000010
:101CFC0080B485B000AF78607B6893F83D30DBB280
:101D0C00012B01D001233AE07B68022283F83D20AD
:101D1C007B681B68DA687B681B6842F00102DA603A
:101D2C007B681B68184A93420ED07B681B68B3F122
:101D3C00804F09D07B681B68144A934204D07B689F
:101D4C001B68134A934211D17B681B689B6803F094
:101D5C000703FB60FB68062B10D07B681B681A68B6
:101D6C007B681B6842F001021A6007E07B681B6805
:101D7C001A687B681B6842F001021A60002318463F
:101D8C001437BD4680BC7047002C01400004004055
:101D9C000008004080B584B000AF78607B681B6899
:101DAC00DB68FB607B681B681B69BB60BB6803F06E
:101DBC000203002B20D0FB6803F00203002B1BD086
:101DCC007B681B686FF002021A617B6801221A772C
:101DDC007B681B689B6903F00303002B03D07868B6
:101DEC0000F098F905E0786800F08BF9786800F05D
:101DFC009AF97B6800221A77BB6803F00403002B66
:101E0C0020D0FB6803F00403002B1BD07B681B68FD
:101E1C006FF004021A617B6802221A777B681B68D8
:101E2C009B6903F44073002B03D0786800F072F9BF
:101E3C0005E0786800F065F9786800F074F97B6863
:101E4C0000221A77BB6803F00803002B20D0FB6834
:101E5C0003F00803002B1BD07B681B686FF0080293
:101E6C001A617B6804221A777B681B68DB6903F0B4
:101E7C000303002B03D0786800F04CF905E0786878
:101E8C0000F03FF9786800F04EF97B6800221A7771
:101E9C00BB6803F01003002B20D0FB6803F0100389
:101EAC00002B1BD07B681B686FF010021A617B68DB
:101EBC0008221A777B681B68DB6903F44073002BDC
:101ECC0003D0786800F026F905E0786800F019F97D
:101EDC00786800F028F97B6800221A77BB6803F059
:101EEC000103002B0CD0FB6803F00103002B07D07F
:101EFC007B681B686FF001021A617868FEF774FE4C
:101F0C00BB6803F08003002B0CD0FB6803F080034C
:101F1C00002B07D07B681B686FF080021A61786811
:101F2C0000F07FFABB6803F04003002B0CD0FB6879
:101F3C0003F04003002B07D07B681B686FF0400256
:101F4C001A61786800F0F8F8BB6803F02003002BE6
:101F5C000CD0FB6803F02003002B07D07B681B68B8
:101F6C006FF020021A61786800F052FA00BF103747
:101F7C00BD4680BD80B584B000AF78603960002369
:101F8C00FB737B6893F83C30012B01D10223B4E046
:101F9C007B68012283F83C207B68022283F83D2079
:101FAC007B681B689B68BB60BB6823F07703BB60D6
:101FBC00BB6823F47F43BB607B681B68BA689A607C
:101FCC003B681B68B3F5005F3ED0B3F5005F00F2D1
:101FDC008780B3F5805F00F08680B3F5805F7FD893
:101FEC00702B1AD0702B7BD8602B50D0602B77D8ED
:101FFC00502B3CD0502B73D8402B58D0402B6FD843
:10200C00302B64D0302B6BD8202B60D0202B67D892
:10201C00002B5CD0102B5AD062E07B6818683B68B0
:10202C0099683B685A683B68DB6800F074F97B6818
:10203C001B689B68BB60BB6843F07703BB607B6825
:10204C001B68BA689A604FE07B6818683B689968AF
:10205C003B685A683B68DB6800F05DF97B681B687D
:10206C009A687B681B6842F480429A603CE07B680B
:10207C0018683B6859683B68DB681A4600F0D4F86E
:10208C007B681B685021184600F02BF92CE07B680C
:10209C0018683B6859683B68DB681A4600F0F2F830
:1020AC007B681B686021184600F01BF91CE07B68FC
:1020BC0018683B6859683B68DB681A4600F0B4F84E
:1020CC007B681B684021184600F00BF90CE07B681C
:1020DC001A683B681B681946104600F002F903E0C9
:1020EC000123FB7300E000BF7B68012283F83D20D5
:1020FC007B68002283F83C20FB7B18461037BD46DA
:10210C0080BD80B483B000AF786000BF0C37BD4693
:10211C0080BC704780B483B000AF786000BF0C37D0
:10212C00BD4680BC704780B483B000AF786000BF00
:10213C000C37BD4680BC704780B483B000AF78606C
:10214C0000BF0C37BD4680BC7047000080B485B022
:10215C0000AF786039607B681B68FB607B682F4A36
:10216C0093420BD07B68B3F1804F07D07B682C4A2D
:10217C00934203D07B682B4A934208D1FB6823F02F
:10218C007003FB603B685B68FA681343FB607B6819
:10219C00224A93420BD07B68B3F1804F07D07B6807
:1021AC001F4A934203D07B681E4A934208D1FB68B6
:1021BC0023F44073FB603B68DB68FA681343FB60F5
:1021CC00FB6823F080023B685B691343FB607B6810
:1021DC00FA681A603B689A687B68DA623B681A682E
:1021EC007B689A627B680D4A934203D13B681A69FB
:1021FC007B681A637B6801225A617B681B6903F058
:10220C000103002B05D07B681B6923F001027B685E
:10221C001A6100BF1437BD4680BC7047002C0140CA
:10222C00000400400008004080B487B000AFF860A4
:10223C00B9607A60FB681B6A7B61FB681B6A23F0E0
:10224C000102FB681A62FB689B693B613B6923F0E6
:10225C00F0033B617B681B013A6913433B617B696B
:10226C0023F00A037B617A69BB6813437B61FB68CB
:10227C003A699A61FB687A691A6200BF1C37BD46DD
:10228C0080BC704780B487B000AFF860B9607A60EA
:10229C00FB681B6A7B61FB681B6A23F01002FB68FE
:1022AC001A62FB689B693B613B6923F470433B6199
:1022BC007B681B033A6913433B617B6923F0A003E2
:1022CC007B61BB681B017A6913437B61FB683A69CC
:1022DC009A61FB687A691A6200BF1C37BD4680BCE4
:1022EC00704780B485B000AF786039607B689B68BC
:1022FC00FB60FB6823F07003FB603A68FB681343D8
:10230C0043F00703FB607B68FA689A6000BF1437E0
:10231C00BD4680BC704780B487B000AFF860B96030
:10232C007A603B60FB689B687B617B6923F47F432D
:10233C007B613B681A027B681A43BB6813437A695A
:10234C0013437B61FB687A699A6000BF1C37BD46FA
:10235C0080BC704780B485B000AF786039607B6812
:10236C0093F83C30012B01D1022346E07B6801221B
:10237C0083F83C207B68022283F83D207B681B6835
:10238C005B68FB607B681B689B68BB60FB6823F029
:10239C007003FB603B681B68FA681343FB607B6847
:1023AC001B68FA685A607B681B68164A93420ED009
:1023BC007B681B68B3F1804F09D07B681B68124A9D
:1023CC00934204D07B681B68104A93420CD1BB68C3
:1023DC0023F08003BB603B685B68BA681343BB6047
:1023EC007B681B68BA689A607B68012283F83D2081
:1023FC007B68002283F83C20002318461437BD4626
:10240C0080BC7047002C01400004004000080040D4
:10241C0080B483B000AF786000BF0C37BD4680BC81
:10242C00704780B483B000AF786000BF0C37BD46F6
:10243C0080BC704770B500260C4D0D4C641BA4106D
:10244C00A64209D100F022F800260A4D0A4C641B62
:10245C00A410A64205D170BD55F8043B984701362F
:10246C00EEE755F8043B98470136F2E7D424000810
:10247C00D4240008D4240008D824000803460244BD
:10248C00934200D1704703F8011BF9E7F8B500BF80
:10249C00F8BC08BC9E467047F8B500BFF8BC08BC39
:0424AC009E46704791
:1024B00000000000000000000102030406070809F4
:1024C00002030405060708090A0B0C0D0E0F101075
:0424D0000102000005
:0424D40031010008CA
:0424D8000D010008EA
:1024DC0001000000010000000100000001000000EC
:1024EC00C800000001000000010000000100000015
:1024FC0001000000C8000000010000000100000005
:10250C000100000001000000C800000002000000F3
:10251C00F40100002C010000C800000000127A0039
:08252C00100000000100000096
:0400000508000DE101
:00000001FF
